{
  "contractName": "myContract",
  "abi": [
    {
      "anonymous": false,
      "inputs": [
        {
          "indexed": false,
          "internalType": "uint256",
          "name": "message",
          "type": "uint256"
        }
      ],
      "name": "test",
      "type": "event"
    },
    {
      "anonymous": false,
      "inputs": [
        {
          "indexed": false,
          "internalType": "address",
          "name": "to",
          "type": "address"
        },
        {
          "indexed": false,
          "internalType": "uint256",
          "name": "ammount",
          "type": "uint256"
        }
      ],
      "name": "transfer",
      "type": "event"
    },
    {
      "anonymous": false,
      "inputs": [
        {
          "indexed": false,
          "internalType": "string",
          "name": "team",
          "type": "string"
        }
      ],
      "name": "win",
      "type": "event"
    },
    {
      "constant": false,
      "inputs": [],
      "name": "tick",
      "outputs": [],
      "payable": false,
      "stateMutability": "nonpayable",
      "type": "function"
    },
    {
      "constant": false,
      "inputs": [
        {
          "internalType": "bool",
          "name": "red",
          "type": "bool"
        }
      ],
      "name": "hireSoldiers",
      "outputs": [],
      "payable": true,
      "stateMutability": "payable",
      "type": "function"
    },
    {
      "constant": true,
      "inputs": [
        {
          "internalType": "bool",
          "name": "red",
          "type": "bool"
        }
      ],
      "name": "getHp",
      "outputs": [
        {
          "internalType": "uint256",
          "name": "",
          "type": "uint256"
        }
      ],
      "payable": false,
      "stateMutability": "view",
      "type": "function"
    },
    {
      "constant": true,
      "inputs": [
        {
          "internalType": "bool",
          "name": "red",
          "type": "bool"
        }
      ],
      "name": "getArmy",
      "outputs": [
        {
          "internalType": "uint256",
          "name": "",
          "type": "uint256"
        }
      ],
      "payable": false,
      "stateMutability": "view",
      "type": "function"
    }
  ],
  "bytecode": "0x6080604052670de0b6b3a7640000600055670de0b6b3a76400006001556000600255600060035534801561003257600080fd5b50610952806100426000396000f3fe60806040526004361061003f5760003560e01c80633eaf5d9f146100445780634a407d9e1461005b578063d6aaddce146100ac578063dafa7713146100fd575b600080fd5b34801561005057600080fd5b5061005961012d565b005b34801561006757600080fd5b506100966004803603602081101561007e57600080fd5b81019080803515159060200190929190505050610260565b6040518082815260200191505060405180910390f35b3480156100b857600080fd5b506100e7600480360360208110156100cf57600080fd5b8101908080351515906020019092919050505061027d565b6040518082815260200191505060405180910390f35b61012b6004803603602081101561011357600080fd5b8101908080351515906020019092919050505061029a565b005b6003546000808282540392505081905550600254600160008282540392505081905550670de0b6b3a76400006000541180610169575060008054145b801561018b5750670de0b6b3a7640000600154118061018a57506000600154145b5b15610205577f3f4bf35c72d3f07e4b504b29131f13b11fcaa6171b820691b631910d6b86dd7d6040518080602001828103825260038152602001807f546965000000000000000000000000000000000000000000000000000000000081525060200191505060405180910390a161020061042f565b61025e565b670de0b6b3a7640000600054118061021e575060008054145b156102325761022d600061045f565b61025d565b670de0b6b3a7640000600154118061024c57506000600154145b1561025c5761025b600161045f565b5b5b5b565b60008115610272576002549050610278565b60035490505b919050565b6000811561028f576000549050610295565b60015490505b919050565b8015610368573460026000828254019250508190555034600460003373ffffffffffffffffffffffffffffffffffffffff1673ffffffffffffffffffffffffffffffffffffffff1681526020019081526020016000206000828254019250508190555060063390806001815401808255809150509060018203906000526020600020016000909192909190916101000a81548173ffffffffffffffffffffffffffffffffffffffff021916908373ffffffffffffffffffffffffffffffffffffffff1602179055505061042c565b3460036000828254019250508190555034600560003373ffffffffffffffffffffffffffffffffffffffff1673ffffffffffffffffffffffffffffffffffffffff1681526020019081526020016000206000828254019250508190555060073390806001815401808255809150509060018203906000526020600020016000909192909190916101000a81548173ffffffffffffffffffffffffffffffffffffffff021916908373ffffffffffffffffffffffffffffffffffffffff160217905550505b50565b670de0b6b3a7640000600081905550670de0b6b3a764000060018190555060006002819055506000600381905550565b60004790507f29e99f07d14aa8d30a12fa0b0789b43183ba1bf6b4a72b95459a3e397cca10d7816040518082815260200191505060405180910390a181156106db5760008090505b60068054905081101561066d576000826002546004600060066000815481106104cc57fe5b9060005260206000200160009054906101000a900473ffffffffffffffffffffffffffffffffffffffff1673ffffffffffffffffffffffffffffffffffffffff1673ffffffffffffffffffffffffffffffffffffffff168152602001908152602001600020548161053957fe5b04029050600660008154811061054b57fe5b9060005260206000200160009054906101000a900473ffffffffffffffffffffffffffffffffffffffff1673ffffffffffffffffffffffffffffffffffffffff166108fc829081150290604051600060405180830381858888f193505050501580156105bb573d6000803e3d6000fd5b507fa9059cbb2ab09eb219583f4a59a5d0623ade346d962bcd4e46b11da047c9049b60066000815481106105eb57fe5b9060005260206000200160009054906101000a900473ffffffffffffffffffffffffffffffffffffffff1682604051808373ffffffffffffffffffffffffffffffffffffffff1673ffffffffffffffffffffffffffffffffffffffff1681526020018281526020019250505060405180910390a15080806001019150506104a7565b507f3f4bf35c72d3f07e4b504b29131f13b11fcaa6171b820691b631910d6b86dd7d6040518080602001828103825260038152602001807f726564000000000000000000000000000000000000000000000000000000000081525060200191505060405180910390a1610911565b60008090505b6007805490508110156108a75760008260035460056000600760008154811061070657fe5b9060005260206000200160009054906101000a900473ffffffffffffffffffffffffffffffffffffffff1673ffffffffffffffffffffffffffffffffffffffff1673ffffffffffffffffffffffffffffffffffffffff168152602001908152602001600020548161077357fe5b04029050600760008154811061078557fe5b9060005260206000200160009054906101000a900473ffffffffffffffffffffffffffffffffffffffff1673ffffffffffffffffffffffffffffffffffffffff166108fc829081150290604051600060405180830381858888f193505050501580156107f5573d6000803e3d6000fd5b507fa9059cbb2ab09eb219583f4a59a5d0623ade346d962bcd4e46b11da047c9049b600760008154811061082557fe5b9060005260206000200160009054906101000a900473ffffffffffffffffffffffffffffffffffffffff1682604051808373ffffffffffffffffffffffffffffffffffffffff1673ffffffffffffffffffffffffffffffffffffffff1681526020018281526020019250505060405180910390a15080806001019150506106e1565b507f3f4bf35c72d3f07e4b504b29131f13b11fcaa6171b820691b631910d6b86dd7d6040518080602001828103825260048152602001807f626c75650000000000000000000000000000000000000000000000000000000081525060200191505060405180910390a15b61091961042f565b505056fea265627a7a723158204d29364c49f9879a765ee568ab2b4f55ab836c92b7a6bb50e7d2584e67d0cf8964736f6c63430005100032",
  "source": "pragma solidity ^0.5.16;\n\ncontract myContract{\n    event test(uint message);\n    event win(string team);\n    event transfer(address to, uint ammount);\n    uint constant startingHP = 1 ether;\n\n    uint redHP = startingHP;\n    uint blueHP = startingHP;\n    \n    uint redArmy = 0;\n    uint blueArmy = 0;\n\n    //Generals\n    mapping(address => uint) red_generals;\n    mapping(address => uint) blue_generals;\n    address payable[] red_general_accs;\n    address payable[] blue_general_accs;\n\n    function reset() private{\n        redHP = startingHP;\n        blueHP = startingHP;\n        redArmy = 0;\n        blueArmy = 0;\n\n    }\n    function gameEnd(bool red) private{\n        uint booty = address(this).balance;\n        emit test(booty);\n        if(red){\n            for(uint i=0; i<red_general_accs.length; i++){\n                uint spoils = (red_generals[red_general_accs[0]]/redArmy) * booty;\n                red_general_accs[0].transfer(spoils);\n                emit transfer(red_general_accs[0],spoils);\n            }\n            emit win(\"red\");\n        }else{\n            for(uint i=0; i<blue_general_accs.length; i++){\n                uint spoils = (blue_generals[blue_general_accs[0]]/blueArmy) * booty;\n                blue_general_accs[0].transfer(spoils);\n                emit transfer(blue_general_accs[0],spoils);\n\n            }\n            emit win(\"blue\");\n        }\n        reset();\n    }\n\n    function tick()public{\n        redHP -= blueArmy;\n        blueHP -= redArmy;\n\n        //Check if any winners\n        if((redHP>startingHP || redHP == 0) && (blueHP > startingHP || blueHP == 0)){\n            emit win(\"Tie\");\n            //No winner. Reset. Keep the money\n            reset();\n        }else if (redHP>startingHP || redHP == 0){\n            gameEnd(false);\n        }else if (blueHP>startingHP || blueHP == 0){\n            gameEnd(true);\n        }\n    }\n\n    function hireSoldiers(bool red)public payable{\n        if(red){\n            redArmy+=msg.value;\n            red_generals[msg.sender] += msg.value;\n            red_general_accs.push(msg.sender);\n        }else{\n            blueArmy+=msg.value;\n            blue_generals[msg.sender] += msg.value;\n            blue_general_accs.push(msg.sender);\n        }\n    }\n\n\n    function getHp(bool red) view public returns(uint){\n        if(red){\n            return redHP;\n        }else{\n            return blueHP;\n        }\n    }\n\n    function getArmy(bool red) view public returns(uint){\n        if(red){\n            return redArmy;\n        }else{\n            return blueArmy;\n        }\n    }\n\n }",
  "sourcePath": "/home/ubuntu/Documents/blockchain/web3t/contracts/myContract.sol",
  "compiler": {
    "name": "solc",
    "version": "0.5.16+commit.9c3226ce.Emscripten.clang"
  },
  "schemaVersion": "3.3.1",
  "updatedAt": "2020-11-13T00:03:55.677Z",
  "networkType": "ethereum",
  "devdoc": {
    "methods": {}
  },
  "userdoc": {
    "methods": {}
  }
}